S014000044617930315F5461736B30332E737265633C
S113000045C0000058C0000056C0000093C0000066
S113001037C10000E3C0000082C100004CC00000F2
S11300204AC0000048C0000046C0000044C00000B0
S113003042C0000040C000003EC000003CC00000C0
S11300403AC0000038C0000036C0000034C00000D0
S113005032C0000030C000002EC000002CC00000E0
S11300602AC0000028C0000026C0000024C00000F0
S113007022C0000020C000001EC000001CC0000000
S11300801AC0000018C0000016C0000011241FBED2
S1130090CFEFD0E1DEBFCDBF11E0A0E0B1E0EAE4F4
S11300A0F3E000E00BBF02C007900D92A230B1074D
S11300B0D9F702D048C1A4CF8FEF8ABB11BA12B8C6
S11300C089B7846089BFEAE6F0E08081806280833A
S11300D089B7886089BF80818068808389B780619F
S11300E089BF8AB782608ABF89B7806289BF8AB7AD
S11300F088608ABF7894809100018BBB2FEF81EEDA
S113010094E0215080409040E1F700C000008091CD
S1130110000190910101009739F48FEF90E09093E2
S1130120010180930001E7CF01979093010180932F
S11301300001E1CF1F920F920FB60F9211240BB65C
S11301400F922F933F934F935F936F937F938F936C
S11301509F93EF93FF9320E030E02CC081E090E088
S1130160FC01022E02C0EE0FFF1F0A94E2F7B90150
S11301706F5F7F4FAC01062E02C0440F551F0A94D7
S1130180E2F72E5F3F4F022E02C0880F991F0A9498
S1130190E2F74E2B842B80958BBB4FEF85EA9EE0D4
S11301A0415080409040E1F700C000002930310503
S11301B024F49B01283031058CF2FF91EF919F913B
S11301C08F917F916F915F914F913F912F910F90FC
S11301D00BBE0F900FBE0F901F9018951F920F9299
S11301E00FB60F9211240BB60F922F933F934F9398
S11301F05F936F937F938F939F93EF93FF9327E086
S113020030E02BC0A9014250510981E090E0FC018B
S113021002C0EE0FFF1F4A95E2F7B9016150710960
S1130220AC01062E02C0440F551F0A94E2F7022EB9
S113023002C0880F991F0A94E2F74E2B842B8095F5
S11302408BBB4FEF85EA9EE0415080409040E1F740
S113025000C0000033231CF09B0133239CF6FF9164
S1130260EF919F918F917F916F915F914F913F910A
S11302702F910F900BBE0F900FBE0F901F901895EB
S11302801F920F920FB60F9211242F933F934F9307
S11302905F938F939F9320E030E015C081E090E05E
S11302A0022E02C0880F991F0A94E2F780958BBB37
S11302B04FEF81EE94E0415080409040E1F700C060
S11302C000002F5F3F4F2830310544F320E030E039
S11302D018C047E050E0421B530B81E090E002C09D
S11302E0880F991F4A95E2F780958BBB4FEF81EEFB
S11302F094E0415080409040E1F700C000002F5F3F
S11303003F4F283031052CF39F918F915F914F918E
S11303103F912F910F900FBE0F901F9018951F9231
S11303200F920FB60F9211248F939F938FEF90E04B
S113033090930101809300019F918F910F900FBEC4
S10D03400F901F901895F894FFCF5A
S105034AFF00AE
S9030000FC
