S014000044617930315F5461736B30322E737265633D
S113000045C000004BC0000049C0000047C00000CC
S113001097C00000FDC0000041C000003FC00000C8
S11300203DC000003BC0000039C0000037C00000E4
S113003035C0000033C0000031C000002FC00000F4
S11300402DC000002BC0000029C0000027C0000004
S113005025C0000023C0000021C000001FC0000014
S11300601DC000001BC0000019C0000017C0000024
S113007015C0000013C0000011C000000FC0000034
S11300800DC000000BC0000009C0000011241FBEF9
S1130090CFEFD0E1DEBFCDBF02D022C1B1CF8FEF11
S11300A08ABB11BA12B889B7886089BF80E8809387
S11300B06A0089B7806189BF82E08ABF7894829997
S11300C00DC00D990BC01BBA2FEF81EE94E02150A7
S11300D080409040E1F700C00000F1CF0D990CC0C2
S11300E08FE08BBB2FEF81EE94E021508040904055
S11300F0E1F700C00000E3CF82990CC080EF8BBB16
S11301002FEF81EE94E0215080409040E1F700C051
S11301100000D5CF8FEF8BBB2FEF89E698E12150FC
S113012080409040E1F700C000001BBA2FEF89E641
S113013098E1215080409040E1F700C00000BFCF1B
S11301401F920F920FB60F9211242F938F939F93A8
S11301508FE78BBB2FEF81EE94E0215080409040DD
S1130160E1F700C000008FEB8BBB2FEF81EE94E032
S1130170215080409040E1F700C000008FED8BBB20
S11301802FEF81EE94E0215080409040E1F700C0D1
S113019000008FEE8BBB2FEF81EE94E02150804066
S11301A09040E1F700C0000087EF8BBB2FEF81EE9A
S11301B094E0215080409040E1F700C000008BEFB4
S11301C08BBB2FEF81EE94E0215080409040E1F70B
S11301D000C000008DEF8BBB2FEF81EE94E0215027
S11301E080409040E1F700C000008EEF8BBB2FEF02
S11301F081EE94E0215080409040E1F700C000007F
S11302009F918F912F910F900FBE0F901F90189573
S11302101F920F920FB60F9211242F938F939F93D7
S11302208EEF8BBB2FEF81EE94E021508040904005
S1130230E1F700C000008DEF8BBB2FEF81EE94E05F
S1130240215080409040E1F700C000008BEF8BBB51
S11302502FEF81EE94E0215080409040E1F700C000
S1130260000087EF8BBB2FEF81EE94E0215080409C
S11302709040E1F700C000008FEE8BBB2FEF81EEC2
S113028094E0215080409040E1F700C000008FEDE1
S11302908BBB2FEF81EE94E0215080409040E1F73A
S11302A000C000008FEB8BBB2FEF81EE94E0215058
S11302B080409040E1F700C000008FE78BBB2FEF38
S11302C081EE94E0215080409040E1F700C00000AE
S11302D09F918F912F910F900FBE0F901F901895A3
S10702E0F894FFCFBC
S9030000FC
